{
  "contractName": "Shop",
  "abi": [
    {
      "inputs": [],
      "payable": false,
      "stateMutability": "nonpayable",
      "type": "constructor"
    },
    {
      "constant": false,
      "inputs": [
        {
          "components": [
            {
              "internalType": "string",
              "name": "name",
              "type": "string"
            },
            {
              "internalType": "uint256",
              "name": "totalCostOfItem",
              "type": "uint256"
            },
            {
              "internalType": "uint256",
              "name": "quantity",
              "type": "uint256"
            }
          ],
          "internalType": "struct Shop.Item",
          "name": "item",
          "type": "tuple"
        }
      ],
      "name": "setCart",
      "outputs": [],
      "payable": true,
      "stateMutability": "payable",
      "type": "function"
    },
    {
      "constant": true,
      "inputs": [],
      "name": "getCart",
      "outputs": [
        {
          "components": [
            {
              "internalType": "string",
              "name": "name",
              "type": "string"
            },
            {
              "internalType": "uint256",
              "name": "totalCostOfItem",
              "type": "uint256"
            },
            {
              "internalType": "uint256",
              "name": "quantity",
              "type": "uint256"
            }
          ],
          "internalType": "struct Shop.Item[]",
          "name": "",
          "type": "tuple[]"
        }
      ],
      "payable": false,
      "stateMutability": "view",
      "type": "function"
    },
    {
      "constant": false,
      "inputs": [
        {
          "components": [
            {
              "internalType": "string",
              "name": "name",
              "type": "string"
            },
            {
              "internalType": "uint256",
              "name": "totalCostOfItem",
              "type": "uint256"
            },
            {
              "internalType": "uint256",
              "name": "quantity",
              "type": "uint256"
            }
          ],
          "internalType": "struct Shop.Item[]",
          "name": "items",
          "type": "tuple[]"
        }
      ],
      "name": "setOrderHistory",
      "outputs": [],
      "payable": true,
      "stateMutability": "payable",
      "type": "function"
    },
    {
      "constant": true,
      "inputs": [],
      "name": "getOrderHistory",
      "outputs": [
        {
          "components": [
            {
              "internalType": "string",
              "name": "name",
              "type": "string"
            },
            {
              "internalType": "uint256",
              "name": "totalCostOfItem",
              "type": "uint256"
            },
            {
              "internalType": "uint256",
              "name": "quantity",
              "type": "uint256"
            }
          ],
          "internalType": "struct Shop.Item[]",
          "name": "",
          "type": "tuple[]"
        }
      ],
      "payable": false,
      "stateMutability": "view",
      "type": "function"
    }
  ],
  "bytecode": "0x608060405234801561001057600080fd5b50336000806101000a81548173ffffffffffffffffffffffffffffffffffffffff021916908373ffffffffffffffffffffffffffffffffffffffff160217905550610a34806100606000396000f3fe60806040526004361061003f5760003560e01c80630deda1e61461004457806321627dad1461006f57806324e8f1361461009a57806352e1fbec146100b6575b600080fd5b34801561005057600080fd5b506100596100d2565b6040516100669190610885565b60405180910390f35b34801561007b57600080fd5b50610084610224565b6040516100919190610885565b60405180910390f35b6100b460048036036100af9190810190610723565b610339565b005b6100d060048036036100cb91908101906106e2565b61039e565b005b6060600260003373ffffffffffffffffffffffffffffffffffffffff1673ffffffffffffffffffffffffffffffffffffffff168152602001908152602001600020805480602002602001604051908101604052809291908181526020016000905b8282101561021b5783829060005260206000209060030201604051806060016040529081600082018054600181600116156101000203166002900480601f0160208091040260200160405190810160405280929190818152602001828054600181600116156101000203166002900480156101ef5780601f106101c4576101008083540402835291602001916101ef565b820191906000526020600020905b8154815290600101906020018083116101d257829003601f168201915b505050505081526020016001820154815260200160028201548152505081526020019060010190610133565b50505050905090565b60606001805480602002602001604051908101604052809291908181526020016000905b828210156103305783829060005260206000209060030201604051806060016040529081600082018054600181600116156101000203166002900480601f0160208091040260200160405190810160405280929190818152602001828054600181600116156101000203166002900480156103045780601f106102d957610100808354040283529160200191610304565b820191906000526020600020905b8154815290600101906020018083116102e757829003601f168201915b505050505081526020016001820154815260200160028201548152505081526020019060010190610248565b50505050905090565b600181908060018154018082558091505090600182039060005260206000209060030201600090919290919091506000820151816000019080519060200190610383929190610470565b50602082015181600101556040820151816002015550505050565b60008090505b815181101561046c57600260003373ffffffffffffffffffffffffffffffffffffffff1673ffffffffffffffffffffffffffffffffffffffff1681526020019081526020016000208282815181106103f857fe5b6020026020010151908060018154018082558091505090600182039060005260206000209060030201600090919290919091506000820151816000019080519060200190610447929190610470565b50602082015181600101556040820151816002015550505080806001019150506103a4565b5050565b828054600181600116156101000203166002900490600052602060002090601f016020900481019282601f106104b157805160ff19168380011785556104df565b828001600101855582156104df579182015b828111156104de5782518255916020019190600101906104c3565b5b5090506104ec91906104f0565b5090565b61051291905b8082111561050e5760008160009055506001016104f6565b5090565b90565b600082601f83011261052657600080fd5b8135610539610534826108d4565b6108a7565b9150818183526020840193506020810190508360005b8381101561057f578135860161056588826105dd565b84526020840193506020830192505060018101905061054f565b5050505092915050565b600082601f83011261059a57600080fd5b81356105ad6105a8826108fc565b6108a7565b915080825260208301602083018583830111156105c957600080fd5b6105d4838284610987565b50505092915050565b6000606082840312156105ef57600080fd5b6105f960606108a7565b9050600082013567ffffffffffffffff81111561061557600080fd5b61062184828501610589565b6000830152506020610635848285016106cd565b6020830152506040610649848285016106cd565b60408301525092915050565b60006060828403121561066757600080fd5b61067160606108a7565b9050600082013567ffffffffffffffff81111561068d57600080fd5b61069984828501610589565b60008301525060206106ad848285016106cd565b60208301525060406106c1848285016106cd565b60408301525092915050565b6000813590506106dc816109da565b92915050565b6000602082840312156106f457600080fd5b600082013567ffffffffffffffff81111561070e57600080fd5b61071a84828501610515565b91505092915050565b60006020828403121561073557600080fd5b600082013567ffffffffffffffff81111561074f57600080fd5b61075b84828501610655565b91505092915050565b60006107708383610826565b905092915050565b600061078382610938565b61078d818561095b565b93508360208202850161079f85610928565b8060005b858110156107db57848403895281516107bc8582610764565b94506107c78361094e565b925060208a019950506001810190506107a3565b50829750879550505050505092915050565b60006107f882610943565b610802818561096c565b9350610812818560208601610996565b61081b816109c9565b840191505092915050565b6000606083016000830151848203600086015261084382826107ed565b91505060208301516108586020860182610876565b50604083015161086b6040860182610876565b508091505092915050565b61087f8161097d565b82525050565b6000602082019050818103600083015261089f8184610778565b905092915050565b6000604051905081810181811067ffffffffffffffff821117156108ca57600080fd5b8060405250919050565b600067ffffffffffffffff8211156108eb57600080fd5b602082029050602081019050919050565b600067ffffffffffffffff82111561091357600080fd5b601f19601f8301169050602081019050919050565b6000819050602082019050919050565b600081519050919050565b600081519050919050565b6000602082019050919050565b600082825260208201905092915050565b600082825260208201905092915050565b6000819050919050565b82818337600083830152505050565b60005b838110156109b4578082015181840152602081019050610999565b838111156109c3576000848401525b50505050565b6000601f19601f8301169050919050565b6109e38161097d565b81146109ee57600080fd5b5056fea365627a7a7231582081f12d3594272d4f69d4e2c5b19b0d47faf6e37c5c76533d163c002fa3c97e136c6578706572696d656e74616cf564736f6c63430005100040",
  "source": "// SPDX-License-Identifier: MIT\n\npragma solidity > 0.5.0;\npragma experimental ABIEncoderV2;\n\n\ncontract Shop {\n    address shopOwner;\n\n    struct Item {\n        string name;\n        uint totalCostOfItem;\n        uint quantity;\n    }\n    \n    Item[] cart;\n    mapping(address => Item[]) orderHistory;\n\n    constructor() public {\n        shopOwner = msg.sender;\n    }   \n\n    function setCart(Item memory item) public payable {\n        cart.push(item);\n    }\n\n    function getCart() public view returns(Item[] memory) {\n        return cart;\n    }\n\n    function setOrderHistory(Item[] memory items) public payable {\n        for (uint i = 0; i < items.length; i++){\n            orderHistory[msg.sender].push(items[i]);\n        }\n    }\n\n    function getOrderHistory() public view returns(Item[] memory) {\n        return orderHistory[msg.sender];\n    }\n}",
  "sourcePath": "/Users/fresh/Desktop/Projects/Green-Kart-dapp/Green-Kart-dApp/blockchain/contracts/Shop.sol",
  "compiler": {
    "name": "solc",
    "version": "0.5.16+commit.9c3226ce.Emscripten.clang"
  },
  "schemaVersion": "3.4.3",
  "updatedAt": "2022-03-12T03:24:54.419Z",
  "networkType": "ethereum",
  "devdoc": {
    "methods": {}
  },
  "userdoc": {
    "methods": {}
  }
}